020260718SISTEMA_LEGADO_VENDAS         000001                                                                                                                                                           
1SOLICITAR                                     CUST00001           MARIA SILVA                                                 0001234567890102                                                         
20000000100000050                                                                                                                                                                                       
20000001600000010                                                                                                                                                                                       
90000000100000002                                                                                                                                                                                       
